{
    "contractName": "KYCStorage",
    "abi": [
        {
            "anonymous": false,
            "inputs": [
                {
                    "indexed": true,
                    "internalType": "address",
                    "name": "user",
                    "type": "address"
                },
                {
                    "indexed": false,
                    "internalType": "string",
                    "name": "name",
                    "type": "string"
                },
                {
                    "indexed": false,
                    "internalType": "uint256",
                    "name": "trustScore",
                    "type": "uint256"
                }
            ],
            "name": "KYCStored",
            "type": "event"
        },
        {
            "inputs": [
                {
                    "internalType": "address",
                    "name": "",
                    "type": "address"
                }
            ],
            "name": "kycRecords",
            "outputs": [
                {
                    "internalType": "string",
                    "name": "name",
                    "type": "string"
                },
                {
                    "internalType": "string",
                    "name": "addressData",
                    "type": "string"
                },
                {
                    "internalType": "string",
                    "name": "idNumber",
                    "type": "string"
                },
                {
                    "internalType": "uint256",
                    "name": "trustScore",
                    "type": "uint256"
                }
            ],
            "stateMutability": "view",
            "type": "function",
            "constant": true
        },
        {
            "inputs": [
                {
                    "internalType": "string",
                    "name": "_name",
                    "type": "string"
                },
                {
                    "internalType": "string",
                    "name": "_addressData",
                    "type": "string"
                },
                {
                    "internalType": "string",
                    "name": "_idNumber",
                    "type": "string"
                },
                {
                    "internalType": "uint256",
                    "name": "_trustScore",
                    "type": "uint256"
                }
            ],
            "name": "storeKYC",
            "outputs": [],
            "stateMutability": "nonpayable",
            "type": "function"
        },
        {
            "inputs": [
                {
                    "internalType": "address",
                    "name": "_user",
                    "type": "address"
                }
            ],
            "name": "getKYC",
            "outputs": [
                {
                    "components": [
                        {
                            "internalType": "string",
                            "name": "name",
                            "type": "string"
                        },
                        {
                            "internalType": "string",
                            "name": "addressData",
                            "type": "string"
                        },
                        {
                            "internalType": "string",
                            "name": "idNumber",
                            "type": "string"
                        },
                        {
                            "internalType": "uint256",
                            "name": "trustScore",
                            "type": "uint256"
                        }
                    ],
                    "internalType": "struct KYCStorage.KYC",
                    "name": "",
                    "type": "tuple"
                }
            ],
            "stateMutability": "view",
            "type": "function",
            "constant": true
        }
    ],
    "bytecode": "0x608060405234801561001057600080fd5b506108d2806100206000396000f3fe608060405234801561001057600080fd5b50600436106100415760003560e01c80634d1a687d1461004657806361806e4f1461006f5780637eb606e814610084575b600080fd5b61005961005436600461066a565b6100a7565b60405161006691906107dc565b60405180910390f35b61008261007d366004610698565b610298565b005b61009761009236600461066a565b610368565b604051610066949392919061076f565b6100af610528565b6001600160a01b038216600090815260208190526040908190208151608081019092528054829082906100e19061084b565b80601f016020809104026020016040519081016040528092919081815260200182805461010d9061084b565b801561015a5780601f1061012f5761010080835404028352916020019161015a565b820191906000526020600020905b81548152906001019060200180831161013d57829003601f168201915b505050505081526020016001820180546101739061084b565b80601f016020809104026020016040519081016040528092919081815260200182805461019f9061084b565b80156101ec5780601f106101c1576101008083540402835291602001916101ec565b820191906000526020600020905b8154815290600101906020018083116101cf57829003601f168201915b505050505081526020016002820180546102059061084b565b80601f01602080910402602001604051908101604052809291908181526020018280546102319061084b565b801561027e5780601f106102535761010080835404028352916020019161027e565b820191906000526020600020905b81548152906001019060200180831161026157829003601f168201915b505050505081526020016003820154815250509050919050565b604080516080810182528581526020808201869052818301859052606082018490523360009081528082529290922081518051929391926102dc9284920190610550565b5060208281015180516102f59260018501920190610550565b5060408201518051610311916002840191602090910190610550565b5060608201518160030155905050336001600160a01b03167fda32f0cfa525fb38172d7692a081ca98bd591d0461c0e3ec1d5017ab498b8e64858360405161035a9291906107ba565b60405180910390a250505050565b6000602081905290815260409020805481906103839061084b565b80601f01602080910402602001604051908101604052809291908181526020018280546103af9061084b565b80156103fc5780601f106103d1576101008083540402835291602001916103fc565b820191906000526020600020905b8154815290600101906020018083116103df57829003601f168201915b5050505050908060010180546104119061084b565b80601f016020809104026020016040519081016040528092919081815260200182805461043d9061084b565b801561048a5780601f1061045f5761010080835404028352916020019161048a565b820191906000526020600020905b81548152906001019060200180831161046d57829003601f168201915b50505050509080600201805461049f9061084b565b80601f01602080910402602001604051908101604052809291908181526020018280546104cb9061084b565b80156105185780601f106104ed57610100808354040283529160200191610518565b820191906000526020600020905b8154815290600101906020018083116104fb57829003601f168201915b5050505050908060030154905084565b6040518060800160405280606081526020016060815260200160608152602001600081525090565b82805461055c9061084b565b90600052602060002090601f01602090048101928261057e57600085556105c4565b82601f1061059757805160ff19168380011785556105c4565b828001600101855582156105c4579182015b828111156105c45782518255916020019190600101906105a9565b506105d09291506105d4565b5090565b5b808211156105d057600081556001016105d5565b600082601f8301126105f9578081fd5b813567ffffffffffffffff8082111561061457610614610886565b604051601f8301601f19168101602001828111828210171561063857610638610886565b60405282815284830160200186101561064f578384fd5b82602086016020830137918201602001929092529392505050565b60006020828403121561067b578081fd5b81356001600160a01b0381168114610691578182fd5b9392505050565b600080600080608085870312156106ad578283fd5b843567ffffffffffffffff808211156106c4578485fd5b6106d0888389016105e9565b955060208701359150808211156106e5578485fd5b6106f1888389016105e9565b94506040870135915080821115610706578384fd5b50610713878288016105e9565b949793965093946060013593505050565b60008151808452815b818110156107495760208185018101518683018201520161072d565b8181111561075a5782602083870101525b50601f01601f19169290920160200192915050565b6000608082526107826080830187610724565b82810360208401526107948187610724565b905082810360408401526107a88186610724565b91505082606083015295945050505050565b6000604082526107cd6040830185610724565b90508260208301529392505050565b6000602082528251608060208401526107f860a0840182610724565b90506020840151601f19808584030160408601526108168383610724565b92506040860151915080858403016060860152506108348282610724565b915050606084015160808401528091505092915050565b60028104600182168061085f57607f821691505b6020821081141561088057634e487b7160e01b600052602260045260246000fd5b50919050565b634e487b7160e01b600052604160045260246000fdfea264697066735822122034ba280199148cc387a2fbbfb762681e82a3a66123b30c6595afbe439b747bc464736f6c63430008000033",
    "immutableReferences": {},
    "source": "// SPDX-License-Identifier: MIT\r\npragma solidity ^0.8.0;\r\n\r\ncontract KYCStorage {\r\n    struct KYC {\r\n        string name;\r\n        string addressData;\r\n        string idNumber;\r\n        uint trustScore;\r\n    }\r\n\r\n    mapping(address => KYC) public kycRecords;\r\n\r\n    event KYCStored(address indexed user, string name, uint trustScore);\r\n\r\n    function storeKYC(\r\n        string memory _name, \r\n        string memory _addressData, \r\n        string memory _idNumber, \r\n        uint _trustScore\r\n    ) public {\r\n        kycRecords[msg.sender] = KYC(_name, _addressData, _idNumber, _trustScore);\r\n        emit KYCStored(msg.sender, _name, _trustScore);\r\n    }\r\n\r\n    function getKYC(address _user) public view returns (KYC memory) {\r\n        return kycRecords[_user];\r\n    }\r\n}\r\n",
    "sourcePath": "C:\\Users\\akash\\OneDrive\\Desktop\\KYC_Project\\contracts\\KYCStorage.sol",
    "compiler": {
        "name": "solc",
        "version": "0.8.0+commit.c7dfd78e.Emscripten.clang"
    },
    "schemaVersion": "3.4.16",
    "updatedAt": "2024-09-22T11:23:42.611Z",
    "networkType": "ethereum",
    "devdoc": {
        "kind": "dev",
        "methods": {},
        "version": 1
    },
    "userdoc": {
        "kind": "user",
        "methods": {},
        "version": 1
    }
}